{"abi":[{"type":"constructor","inputs":[{"name":"initialOwner","type":"address","internalType":"address"},{"name":"initialSupply","type":"uint256","internalType":"uint256"}],"stateMutability":"nonpayable"},{"type":"function","name":"allowance","inputs":[{"name":"owner","type":"address","internalType":"address"},{"name":"spender","type":"address","internalType":"address"}],"outputs":[{"name":"","type":"uint256","internalType":"uint256"}],"stateMutability":"view"},{"type":"function","name":"approve","inputs":[{"name":"spender","type":"address","internalType":"address"},{"name":"value","type":"uint256","internalType":"uint256"}],"outputs":[{"name":"","type":"bool","internalType":"bool"}],"stateMutability":"nonpayable"},{"type":"function","name":"balanceOf","inputs":[{"name":"account","type":"address","internalType":"address"}],"outputs":[{"name":"","type":"uint256","internalType":"uint256"}],"stateMutability":"view"},{"type":"function","name":"burn","inputs":[{"name":"amount","type":"uint256","internalType":"uint256"}],"outputs":[],"stateMutability":"nonpayable"},{"type":"function","name":"decimals","inputs":[],"outputs":[{"name":"","type":"uint8","internalType":"uint8"}],"stateMutability":"view"},{"type":"function","name":"mint","inputs":[{"name":"to","type":"address","internalType":"address"},{"name":"amount","type":"uint256","internalType":"uint256"}],"outputs":[],"stateMutability":"nonpayable"},{"type":"function","name":"name","inputs":[],"outputs":[{"name":"","type":"string","internalType":"string"}],"stateMutability":"view"},{"type":"function","name":"owner","inputs":[],"outputs":[{"name":"","type":"address","internalType":"address"}],"stateMutability":"view"},{"type":"function","name":"renounceOwnership","inputs":[],"outputs":[],"stateMutability":"nonpayable"},{"type":"function","name":"symbol","inputs":[],"outputs":[{"name":"","type":"string","internalType":"string"}],"stateMutability":"view"},{"type":"function","name":"totalSupply","inputs":[],"outputs":[{"name":"","type":"uint256","internalType":"uint256"}],"stateMutability":"view"},{"type":"function","name":"transfer","inputs":[{"name":"to","type":"address","internalType":"address"},{"name":"value","type":"uint256","internalType":"uint256"}],"outputs":[{"name":"","type":"bool","internalType":"bool"}],"stateMutability":"nonpayable"},{"type":"function","name":"transferFrom","inputs":[{"name":"from","type":"address","internalType":"address"},{"name":"to","type":"address","internalType":"address"},{"name":"value","type":"uint256","internalType":"uint256"}],"outputs":[{"name":"","type":"bool","internalType":"bool"}],"stateMutability":"nonpayable"},{"type":"function","name":"transferOwnership","inputs":[{"name":"newOwner","type":"address","internalType":"address"}],"outputs":[],"stateMutability":"nonpayable"},{"type":"event","name":"Approval","inputs":[{"name":"owner","type":"address","indexed":true,"internalType":"address"},{"name":"spender","type":"address","indexed":true,"internalType":"address"},{"name":"value","type":"uint256","indexed":false,"internalType":"uint256"}],"anonymous":false},{"type":"event","name":"OwnershipTransferred","inputs":[{"name":"previousOwner","type":"address","indexed":true,"internalType":"address"},{"name":"newOwner","type":"address","indexed":true,"internalType":"address"}],"anonymous":false},{"type":"event","name":"TokensBurned","inputs":[{"name":"from","type":"address","indexed":true,"internalType":"address"},{"name":"amount","type":"uint256","indexed":false,"internalType":"uint256"}],"anonymous":false},{"type":"event","name":"TokensMinted","inputs":[{"name":"to","type":"address","indexed":true,"internalType":"address"},{"name":"amount","type":"uint256","indexed":false,"internalType":"uint256"}],"anonymous":false},{"type":"event","name":"Transfer","inputs":[{"name":"from","type":"address","indexed":true,"internalType":"address"},{"name":"to","type":"address","indexed":true,"internalType":"address"},{"name":"value","type":"uint256","indexed":false,"internalType":"uint256"}],"anonymous":false},{"type":"error","name":"ERC20InsufficientAllowance","inputs":[{"name":"spender","type":"address","internalType":"address"},{"name":"allowance","type":"uint256","internalType":"uint256"},{"name":"needed","type":"uint256","internalType":"uint256"}]},{"type":"error","name":"ERC20InsufficientBalance","inputs":[{"name":"sender","type":"address","internalType":"address"},{"name":"balance","type":"uint256","internalType":"uint256"},{"name":"needed","type":"uint256","internalType":"uint256"}]},{"type":"error","name":"ERC20InvalidApprover","inputs":[{"name":"approver","type":"address","internalType":"address"}]},{"type":"error","name":"ERC20InvalidReceiver","inputs":[{"name":"receiver","type":"address","internalType":"address"}]},{"type":"error","name":"ERC20InvalidSender","inputs":[{"name":"sender","type":"address","internalType":"address"}]},{"type":"error","name":"ERC20InvalidSpender","inputs":[{"name":"spender","type":"address","internalType":"address"}]},{"type":"error","name":"OwnableInvalidOwner","inputs":[{"name":"owner","type":"address","internalType":"address"}]},{"type":"error","name":"OwnableUnauthorizedAccount","inputs":[{"name":"account","type":"address","internalType":"address"}]}],"bytecode":{"object":"0x608060405234801561001057600080fd5b50604051610f50380380610f5083398101604081905261002f9161029f565b816040518060400160405280600681526020016526bca1b7b4b760d11b815250604051806040016040528060038152602001624d594360e81b815250816003908161007a9190610378565b5060046100878282610378565b5050506001600160a01b0381166100b957604051631e4fbdf760e01b8152600060048201526024015b60405180910390fd5b6100c2816100e9565b506100e2336100d36012600a610535565b6100dd908461054b565b61013b565b5050610575565b600580546001600160a01b038381166001600160a01b0319831681179093556040519116919082907f8be0079c531659141344cd1fd0a4f28419497f9722a3daafe3b4186f6b6457e090600090a35050565b6001600160a01b0382166101655760405163ec442f0560e01b8152600060048201526024016100b0565b61017160008383610175565b5050565b6001600160a01b0383166101a05780600260008282546101959190610562565b909155506102129050565b6001600160a01b038316600090815260208190526040902054818110156101f35760405163391434e360e21b81526001600160a01b038516600482015260248101829052604481018390526064016100b0565b6001600160a01b03841660009081526020819052604090209082900390555b6001600160a01b03821661022e5760028054829003905561024d565b6001600160a01b03821660009081526020819052604090208054820190555b816001600160a01b0316836001600160a01b03167fddf252ad1be2c89b69c2b068fc378daa952ba7f163c4a11628f55a4df523b3ef8360405161029291815260200190565b60405180910390a3505050565b600080604083850312156102b257600080fd5b82516001600160a01b03811681146102c957600080fd5b6020939093015192949293505050565b634e487b7160e01b600052604160045260246000fd5b600181811c9082168061030357607f821691505b60208210810361032357634e487b7160e01b600052602260045260246000fd5b50919050565b601f82111561037357806000526020600020601f840160051c810160208510156103505750805b601f840160051c820191505b81811015610370576000815560010161035c565b50505b505050565b81516001600160401b03811115610391576103916102d9565b6103a58161039f84546102ef565b84610329565b6020601f8211600181146103d957600083156103c15750848201515b600019600385901b1c1916600184901b178455610370565b600084815260208120601f198516915b8281101561040957878501518255602094850194600190920191016103e9565b50848210156104275786840151600019600387901b60f8161c191681555b50505050600190811b01905550565b634e487b7160e01b600052601160045260246000fd5b6001815b60018411156104875780850481111561046b5761046b610436565b600184161561047957908102905b60019390931c928002610450565b935093915050565b60008261049e5750600161052f565b816104ab5750600061052f565b81600181146104c157600281146104cb576104e7565b600191505061052f565b60ff8411156104dc576104dc610436565b50506001821b61052f565b5060208310610133831016604e8410600b841016171561050a575081810a61052f565b610517600019848461044c565b806000190482111561052b5761052b610436565b0290505b92915050565b600061054460ff84168361048f565b9392505050565b808202811582820484141761052f5761052f610436565b8082018082111561052f5761052f610436565b6109cc806105846000396000f3fe608060405234801561001057600080fd5b50600436106100ea5760003560e01c806370a082311161008c57806395d89b411161006657806395d89b41146101d8578063a9059cbb146101e0578063dd62ed3e146101f3578063f2fde38b1461022c57600080fd5b806370a082311461018c578063715018a6146101b55780638da5cb5b146101bd57600080fd5b806323b872dd116100c857806323b872dd14610142578063313ce5671461015557806340c10f191461016457806342966c681461017957600080fd5b806306fdde03146100ef578063095ea7b31461010d57806318160ddd14610130575b600080fd5b6100f761023f565b60405161010491906107fc565b60405180910390f35b61012061011b366004610866565b6102d1565b6040519015158152602001610104565b6002545b604051908152602001610104565b610120610150366004610890565b6102eb565b60405160128152602001610104565b610177610172366004610866565b61030f565b005b6101776101873660046108cd565b610368565b61013461019a3660046108e6565b6001600160a01b031660009081526020819052604090205490565b6101776103aa565b6005546040516001600160a01b039091168152602001610104565b6100f76103be565b6101206101ee366004610866565b6103cd565b610134610201366004610908565b6001600160a01b03918216600090815260016020908152604080832093909416825291909152205490565b61017761023a3660046108e6565b6103db565b60606003805461024e9061093b565b80601f016020809104026020016040519081016040528092919081815260200182805461027a9061093b565b80156102c75780601f1061029c576101008083540402835291602001916102c7565b820191906000526020600020905b8154815290600101906020018083116102aa57829003601f168201915b5050505050905090565b6000336102df81858561041e565b60019150505b92915050565b6000336102f9858285610430565b6103048585856104af565b506001949350505050565b61031761050e565b610321828261053b565b816001600160a01b03167f3f2c9d57c068687834f0de942a9babb9e5acab57d516d3480a3c16ee165a42738260405161035c91815260200190565b60405180910390a25050565b6103723382610575565b60405181815233907ffd38818f5291bf0bb3a2a48aadc06ba8757865d1dabd804585338aab3009dcb69060200160405180910390a250565b6103b261050e565b6103bc60006105ab565b565b60606004805461024e9061093b565b6000336102df8185856104af565b6103e361050e565b6001600160a01b03811661041257604051631e4fbdf760e01b8152600060048201526024015b60405180910390fd5b61041b816105ab565b50565b61042b83838360016105fd565b505050565b6001600160a01b038381166000908152600160209081526040808320938616835292905220546000198110156104a9578181101561049a57604051637dc7a0d960e11b81526001600160a01b03841660048201526024810182905260448101839052606401610409565b6104a9848484840360006105fd565b50505050565b6001600160a01b0383166104d957604051634b637e8f60e11b815260006004820152602401610409565b6001600160a01b0382166105035760405163ec442f0560e01b815260006004820152602401610409565b61042b8383836106d2565b6005546001600160a01b031633146103bc5760405163118cdaa760e01b8152336004820152602401610409565b6001600160a01b0382166105655760405163ec442f0560e01b815260006004820152602401610409565b610571600083836106d2565b5050565b6001600160a01b03821661059f57604051634b637e8f60e11b815260006004820152602401610409565b610571826000836106d2565b600580546001600160a01b038381166001600160a01b0319831681179093556040519116919082907f8be0079c531659141344cd1fd0a4f28419497f9722a3daafe3b4186f6b6457e090600090a35050565b6001600160a01b0384166106275760405163e602df0560e01b815260006004820152602401610409565b6001600160a01b03831661065157604051634a1406b160e11b815260006004820152602401610409565b6001600160a01b03808516600090815260016020908152604080832093871683529290522082905580156104a957826001600160a01b0316846001600160a01b03167f8c5be1e5ebec7d5bd14f71427d1e84f3dd0314c0f7b2291e5b200ac8c7c3b925846040516106c491815260200190565b60405180910390a350505050565b6001600160a01b0383166106fd5780600260008282546106f29190610975565b9091555061076f9050565b6001600160a01b038316600090815260208190526040902054818110156107505760405163391434e360e21b81526001600160a01b03851660048201526024810182905260448101839052606401610409565b6001600160a01b03841660009081526020819052604090209082900390555b6001600160a01b03821661078b576002805482900390556107aa565b6001600160a01b03821660009081526020819052604090208054820190555b816001600160a01b0316836001600160a01b03167fddf252ad1be2c89b69c2b068fc378daa952ba7f163c4a11628f55a4df523b3ef836040516107ef91815260200190565b60405180910390a3505050565b602081526000825180602084015260005b8181101561082a576020818601810151604086840101520161080d565b506000604082850101526040601f19601f83011684010191505092915050565b80356001600160a01b038116811461086157600080fd5b919050565b6000806040838503121561087957600080fd5b6108828361084a565b946020939093013593505050565b6000806000606084860312156108a557600080fd5b6108ae8461084a565b92506108bc6020850161084a565b929592945050506040919091013590565b6000602082840312156108df57600080fd5b5035919050565b6000602082840312156108f857600080fd5b6109018261084a565b9392505050565b6000806040838503121561091b57600080fd5b6109248361084a565b91506109326020840161084a565b90509250929050565b600181811c9082168061094f57607f821691505b60208210810361096f57634e487b7160e01b600052602260045260246000fd5b50919050565b808201808211156102e557634e487b7160e01b600052601160045260246000fdfea2646970667358221220b5869a6a6bbb935c8207d2a46184dbd59dfe8f1268359662fdb15a0c5098f11064736f6c634300081c0033","linkReferences":{}},"methodIdentifiers":{"allowance(address,address)":"dd62ed3e","approve(address,uint256)":"095ea7b3","balanceOf(address)":"70a08231","burn(uint256)":"42966c68","decimals()":"313ce567","mint(address,uint256)":"40c10f19","name()":"06fdde03","owner()":"8da5cb5b","renounceOwnership()":"715018a6","symbol()":"95d89b41","totalSupply()":"18160ddd","transfer(address,uint256)":"a9059cbb","transferFrom(address,address,uint256)":"23b872dd","transferOwnership(address)":"f2fde38b"},"id":22}